:0300000002026F8A
:0C026F00787FE4F6D8FD7581760202B6B7
:10033F005374632043617220737973004F4E200012
:10034F004F46460073746F702020006C65667420F2
:10035F00202000666F72776172640072696768743B
:0B036F002020006261636B2020200052
:10037A00152F496E7465726E6574206F6620546815
:10038A00696E67733030000B2430313233343536BE
:10039A0037383900C100C1010123000122000121BF
:0103AA000052
:08046600D2A28F807F647E00AA
:0B046E00EF1FAC0670011E4C70F62260
:0A04AE00C2A1C2A0120466C2A2227D
:100003007C00AF03AE0212003F7C007D0A12003F6A
:0600130074242DF8E6FF45
:0A001900C2A1D2A0120466C2A22206
:0F049F007F3C1204AE7F0C1204AE7F060204AE47
:0A04B8007F011204AE7F020204AEC1
:04047900E4FD7F021D
:0F047D00EDBF01042480800224C0FF1204AE22D0
:10042200AD07ED75F00A8475F00A84742425F0F89E
:10043200E6FF120019ED75F00A84742425F0F8E63F
:04044200FF0200199C
:1003AC00AB07AA067C037DE81200097D64120003EA
:1003BC007D0A120003AE02AF037C007D0A12003FDF
:0903CC0074242DF8E6FF0200196B
:10048C00120026FF600C120019740129F9E43AFAE3
:03049C0080EE22CD
:10018E00D2AF7F807E251203D57E007F327D007B2D
:10019E00007A00794412009412049F1204B8E4FD10
:1001AE007F0112047D7BFF7A03793F12048C309716
:1001BE000FD2017D097F0212047D7A03794B8012E2
:1001CE00209712C2017D097F0212047D7BFF7A0304
:1001DE00794F12048CE5237013F522F590FD7F0202
:1001EE0012047D7BFF7A03795312048CE523B4014C
:1001FE00127522017590011204797BFF7A03795AE8
:10020E0012048CE523B402127522027590051204B5
:10021E00797BFF7A03796212048CE523B40312759D
:10022E0022037590041204797BFF7A03796A120413
:10023E008CE523B4041275220475900A1204797B9E
:10024E00FF7A03797212048C2000030201ACC20003
:10025E007E007F327D007B007A007944120094800C
:01026E00E7A8
:1003D50075985053890F438920AB07AA06E4F9F8AD
:1003E5007F807E70FDFC1202FBEFF404F58D858D98
:0803F5008BC2ABD2ACD28E2208
:030023000204468E
:04044600C0E0C0D082
:10044A0030980FC298859923E599B40A05D20075A8
:07045A002100309902C29954
:05046100D0D0D0E03214
:0604C2008F993099FD2224
:1003FD008B088A09890AAB08AA09A90A1200266086
:10040D0013050AE50A7002050914F9120026FF12F8
:05041D0004C280E22290
:10027B0002018EE493A3F8E493A34003F68001F20A
:10028B0008DFF48029E493A3F85407240CC8C33384
:10029B00C4540F4420C8834004F456800146F6DF53
:1002AB00E4800B010204081020408090037AE47E66
:1002BB00019360BCA3FF543F30E509541FFEE49348
:1002CB00A360010ECF54C025E060A840B8E493A30F
:1002DB00FAE493A3F8E493A3C8C582C8CAC583CA3A
:1002EB00F0A3C8C582C8CAC583CADFE9DEE780BEF2
:0103AB000051
:10002600BB010689828A83E0225002E722BBFE02D8
:09003600E32289828A83E493220B
:10003F00BC000BBE0029EF8DF084FFADF022E4CCA5
:10004F00F875F008EF2FFFEE33FEEC33FCEE9DEC6E
:10005F00984005FCEE9DFE0FD5F0E9E4CEFD22EDB4
:10006F00F8F5F0EE8420D21CFEADF075F008EF2FFE
:10007F00FFED33FD4007985006D5F0F222C398FDEF
:05008F000FD5F0EA228C
:1002FB00C2D5E830E70FB2D5E4C39BFBE49AFAE42E
:10030B0099F9E498F8EC30E717B2D51203311200E3
:10031B00FCE4C39BFBE49AFAE499F9E498F88003B4
:10032B001200FC30D50DE4C39FFFE49EFEE49DFD5F
:04033B00E49CFC2220
:10009400EF4E6012EF60010EEDBB010B89828A8383
:1000A400F0A3DFFCDEFA2289F05007F709DFFCA990
:0C00B400F022BBFEFCF309DFFCA9F022E7
:1000C00075F008758200EF2FFFEE33FECD33CDCCF7
:1000D00033CCC58233C5829BED9AEC99E58298407A
:1000E0000CF582EE9BFEED9AFDEC99FC0FD5F0D657
:1000F000E4CEFBE4CDFAE4CCF9A88222B800C1B981
:100100000059BA002DEC8BF084CFCECDFCE5F0CBBE
:10011000F97818EF2FFFEE33FEED33FDEC33FCEBF7
:1001200033FB10D703994004EB99FB0FD8E5E4F9B2
:10013000FA227818EF2FFFEE33FEED33FDEC33FC9F
:10014000C933C910D7059BE99A4007EC9BFCE99A93
:10015000F90FD8E0E4C9FAE4CCFB2275F010EF2FD8
:10016000FFEE33FEED33FDCC33CCC833C810D707D8
:100170009BEC9AE899400AED9BFDEC9AFCE899F813
:0E0180000FD5F0DAE4CDFBE4CCFAE4C8F922A6
:00000001FF
